{
  "_format": "hh-sol-artifact-1",
  "contractName": "Smileys",
  "sourceName": "contracts/Smileys.sol",
  "address": "0x0D826018b53f935572352d5b0C9440E83288e729",
  "abi": [
    {
      "inputs": [],
      "stateMutability": "nonpayable",
      "type": "constructor"
    },
    {
      "anonymous": false,
      "inputs": [
        {
          "indexed": true,
          "internalType": "address",
          "name": "owner",
          "type": "address"
        },
        {
          "indexed": true,
          "internalType": "address",
          "name": "approved",
          "type": "address"
        },
        {
          "indexed": true,
          "internalType": "uint256",
          "name": "tokenId",
          "type": "uint256"
        }
      ],
      "name": "Approval",
      "type": "event"
    },
    {
      "anonymous": false,
      "inputs": [
        {
          "indexed": true,
          "internalType": "address",
          "name": "owner",
          "type": "address"
        },
        {
          "indexed": true,
          "internalType": "address",
          "name": "operator",
          "type": "address"
        },
        {
          "indexed": false,
          "internalType": "bool",
          "name": "approved",
          "type": "bool"
        }
      ],
      "name": "ApprovalForAll",
      "type": "event"
    },
    {
      "anonymous": false,
      "inputs": [
        {
          "indexed": true,
          "internalType": "address",
          "name": "previousOwner",
          "type": "address"
        },
        {
          "indexed": true,
          "internalType": "address",
          "name": "newOwner",
          "type": "address"
        }
      ],
      "name": "OwnershipTransferred",
      "type": "event"
    },
    {
      "anonymous": false,
      "inputs": [
        {
          "indexed": true,
          "internalType": "address",
          "name": "from",
          "type": "address"
        },
        {
          "indexed": true,
          "internalType": "address",
          "name": "to",
          "type": "address"
        },
        {
          "indexed": true,
          "internalType": "uint256",
          "name": "tokenId",
          "type": "uint256"
        }
      ],
      "name": "Transfer",
      "type": "event"
    },
    {
      "inputs": [
        {
          "internalType": "address",
          "name": "to",
          "type": "address"
        },
        {
          "internalType": "uint256",
          "name": "tokenId",
          "type": "uint256"
        }
      ],
      "name": "approve",
      "outputs": [],
      "stateMutability": "nonpayable",
      "type": "function"
    },
    {
      "inputs": [
        {
          "internalType": "address",
          "name": "owner",
          "type": "address"
        }
      ],
      "name": "balanceOf",
      "outputs": [
        {
          "internalType": "uint256",
          "name": "",
          "type": "uint256"
        }
      ],
      "stateMutability": "view",
      "type": "function"
    },
    {
      "inputs": [
        {
          "internalType": "uint256",
          "name": "",
          "type": "uint256"
        }
      ],
      "name": "color",
      "outputs": [
        {
          "internalType": "bytes3",
          "name": "",
          "type": "bytes3"
        }
      ],
      "stateMutability": "view",
      "type": "function"
    },
    {
      "inputs": [
        {
          "internalType": "uint256",
          "name": "randomValue",
          "type": "uint256"
        }
      ],
      "name": "faceColor",
      "outputs": [
        {
          "internalType": "string",
          "name": "value",
          "type": "string"
        }
      ],
      "stateMutability": "pure",
      "type": "function"
    },
    {
      "inputs": [
        {
          "internalType": "uint256",
          "name": "",
          "type": "uint256"
        }
      ],
      "name": "genes",
      "outputs": [
        {
          "internalType": "bytes32",
          "name": "",
          "type": "bytes32"
        }
      ],
      "stateMutability": "view",
      "type": "function"
    },
    {
      "inputs": [
        {
          "internalType": "uint256",
          "name": "tokenId",
          "type": "uint256"
        }
      ],
      "name": "getApproved",
      "outputs": [
        {
          "internalType": "address",
          "name": "",
          "type": "address"
        }
      ],
      "stateMutability": "view",
      "type": "function"
    },
    {
      "inputs": [
        {
          "internalType": "address",
          "name": "owner",
          "type": "address"
        },
        {
          "internalType": "address",
          "name": "operator",
          "type": "address"
        }
      ],
      "name": "isApprovedForAll",
      "outputs": [
        {
          "internalType": "bool",
          "name": "",
          "type": "bool"
        }
      ],
      "stateMutability": "view",
      "type": "function"
    },
    {
      "inputs": [],
      "name": "mintItem",
      "outputs": [
        {
          "internalType": "uint256",
          "name": "",
          "type": "uint256"
        }
      ],
      "stateMutability": "nonpayable",
      "type": "function"
    },
    {
      "inputs": [],
      "name": "name",
      "outputs": [
        {
          "internalType": "string",
          "name": "",
          "type": "string"
        }
      ],
      "stateMutability": "view",
      "type": "function"
    },
    {
      "inputs": [
        {
          "internalType": "uint256",
          "name": "randomValue",
          "type": "uint256"
        }
      ],
      "name": "negativeSign",
      "outputs": [
        {
          "internalType": "int256",
          "name": "value",
          "type": "int256"
        }
      ],
      "stateMutability": "pure",
      "type": "function"
    },
    {
      "inputs": [],
      "name": "owner",
      "outputs": [
        {
          "internalType": "address",
          "name": "",
          "type": "address"
        }
      ],
      "stateMutability": "view",
      "type": "function"
    },
    {
      "inputs": [
        {
          "internalType": "uint256",
          "name": "tokenId",
          "type": "uint256"
        }
      ],
      "name": "ownerOf",
      "outputs": [
        {
          "internalType": "address",
          "name": "",
          "type": "address"
        }
      ],
      "stateMutability": "view",
      "type": "function"
    },
    {
      "inputs": [
        {
          "internalType": "uint256",
          "name": "randomValue",
          "type": "uint256"
        }
      ],
      "name": "randomSmile",
      "outputs": [
        {
          "internalType": "string",
          "name": "value",
          "type": "string"
        }
      ],
      "stateMutability": "pure",
      "type": "function"
    },
    {
      "inputs": [
        {
          "internalType": "uint256",
          "name": "id",
          "type": "uint256"
        }
      ],
      "name": "renderTokenById",
      "outputs": [
        {
          "internalType": "string",
          "name": "",
          "type": "string"
        }
      ],
      "stateMutability": "view",
      "type": "function"
    },
    {
      "inputs": [],
      "name": "renounceOwnership",
      "outputs": [],
      "stateMutability": "nonpayable",
      "type": "function"
    },
    {
      "inputs": [
        {
          "internalType": "address",
          "name": "from",
          "type": "address"
        },
        {
          "internalType": "address",
          "name": "to",
          "type": "address"
        },
        {
          "internalType": "uint256",
          "name": "tokenId",
          "type": "uint256"
        }
      ],
      "name": "safeTransferFrom",
      "outputs": [],
      "stateMutability": "nonpayable",
      "type": "function"
    },
    {
      "inputs": [
        {
          "internalType": "address",
          "name": "from",
          "type": "address"
        },
        {
          "internalType": "address",
          "name": "to",
          "type": "address"
        },
        {
          "internalType": "uint256",
          "name": "tokenId",
          "type": "uint256"
        },
        {
          "internalType": "bytes",
          "name": "_data",
          "type": "bytes"
        }
      ],
      "name": "safeTransferFrom",
      "outputs": [],
      "stateMutability": "nonpayable",
      "type": "function"
    },
    {
      "inputs": [
        {
          "internalType": "address",
          "name": "operator",
          "type": "address"
        },
        {
          "internalType": "bool",
          "name": "approved",
          "type": "bool"
        }
      ],
      "name": "setApprovalForAll",
      "outputs": [],
      "stateMutability": "nonpayable",
      "type": "function"
    },
    {
      "inputs": [
        {
          "internalType": "bytes4",
          "name": "interfaceId",
          "type": "bytes4"
        }
      ],
      "name": "supportsInterface",
      "outputs": [
        {
          "internalType": "bool",
          "name": "",
          "type": "bool"
        }
      ],
      "stateMutability": "view",
      "type": "function"
    },
    {
      "inputs": [],
      "name": "symbol",
      "outputs": [
        {
          "internalType": "string",
          "name": "",
          "type": "string"
        }
      ],
      "stateMutability": "view",
      "type": "function"
    },
    {
      "inputs": [
        {
          "internalType": "uint256",
          "name": "index",
          "type": "uint256"
        }
      ],
      "name": "tokenByIndex",
      "outputs": [
        {
          "internalType": "uint256",
          "name": "",
          "type": "uint256"
        }
      ],
      "stateMutability": "view",
      "type": "function"
    },
    {
      "inputs": [
        {
          "internalType": "address",
          "name": "owner",
          "type": "address"
        },
        {
          "internalType": "uint256",
          "name": "index",
          "type": "uint256"
        }
      ],
      "name": "tokenOfOwnerByIndex",
      "outputs": [
        {
          "internalType": "uint256",
          "name": "",
          "type": "uint256"
        }
      ],
      "stateMutability": "view",
      "type": "function"
    },
    {
      "inputs": [
        {
          "internalType": "uint256",
          "name": "id",
          "type": "uint256"
        }
      ],
      "name": "tokenURI",
      "outputs": [
        {
          "internalType": "string",
          "name": "",
          "type": "string"
        }
      ],
      "stateMutability": "view",
      "type": "function"
    },
    {
      "inputs": [],
      "name": "totalSupply",
      "outputs": [
        {
          "internalType": "uint256",
          "name": "",
          "type": "uint256"
        }
      ],
      "stateMutability": "view",
      "type": "function"
    },
    {
      "inputs": [
        {
          "internalType": "address",
          "name": "from",
          "type": "address"
        },
        {
          "internalType": "address",
          "name": "to",
          "type": "address"
        },
        {
          "internalType": "uint256",
          "name": "tokenId",
          "type": "uint256"
        }
      ],
      "name": "transferFrom",
      "outputs": [],
      "stateMutability": "nonpayable",
      "type": "function"
    },
    {
      "inputs": [
        {
          "internalType": "address",
          "name": "newOwner",
          "type": "address"
        }
      ],
      "name": "transferOwnership",
      "outputs": [],
      "stateMutability": "nonpayable",
      "type": "function"
    }
  ],
  "bytecode": "0x60806040523480156200001157600080fd5b506040518060400160405280600781526020017f536d696c657973000000000000000000000000000000000000000000000000008152506040518060400160405280600381526020017f534d4c0000000000000000000000000000000000000000000000000000000000815250816000908051906020019062000096929190620001a6565b508060019080519060200190620000af929190620001a6565b505050620000d2620000c6620000d860201b60201c565b620000e060201b60201c565b620002bb565b600033905090565b6000600a60009054906101000a900473ffffffffffffffffffffffffffffffffffffffff16905081600a60006101000a81548173ffffffffffffffffffffffffffffffffffffffff021916908373ffffffffffffffffffffffffffffffffffffffff1602179055508173ffffffffffffffffffffffffffffffffffffffff168173ffffffffffffffffffffffffffffffffffffffff167f8be0079c531659141344cd1fd0a4f28419497f9722a3daafe3b4186f6b6457e060405160405180910390a35050565b828054620001b49062000256565b90600052602060002090601f016020900481019282620001d8576000855562000224565b82601f10620001f357805160ff191683800117855562000224565b8280016001018555821562000224579182015b828111156200022357825182559160200191906001019062000206565b5b50905062000233919062000237565b5090565b5b808211156200025257600081600090555060010162000238565b5090565b600060028204905060018216806200026f57607f821691505b602082108114156200028657620002856200028c565b5b50919050565b7f4e487b7100000000000000000000000000000000000000000000000000000000600052602260045260246000fd5b615d5580620002cb6000396000f3fe608060405234801561001057600080fd5b506004361061018e5760003560e01c80638da5cb5b116100de578063b88d4fde11610097578063e4ea0de811610071578063e4ea0de8146104e1578063e985e9c514610511578063eb93406b14610541578063f2fde38b1461055f5761018e565b8063b88d4fde14610465578063c87b56dd14610481578063d4e28c9c146104b15761018e565b80638da5cb5b1461037d57806395d89b411461039b5780639ab89867146103b9578063a22cb465146103e9578063a2d6c6da14610405578063ab1aa1c5146104355761018e565b8063261a92771161014b5780634f6ccce7116101255780634f6ccce7146102e35780636352211e1461031357806370a0823114610343578063715018a6146103735761018e565b8063261a9277146102675780632f745c591461029757806342842e0e146102c75761018e565b806301ffc9a71461019357806306fdde03146101c3578063081812fc146101e1578063095ea7b31461021157806318160ddd1461022d57806323b872dd1461024b575b600080fd5b6101ad60048036038101906101a891906138aa565b61057b565b6040516101ba9190614643565b60405180910390f35b6101cb6105f5565b6040516101d891906146af565b60405180910390f35b6101fb60048036038101906101f691906138fc565b610687565b60405161020891906145dc565b60405180910390f35b61022b6004803603810190610226919061386e565b61070c565b005b610235610824565b6040516102429190614911565b60405180910390f35b61026560048036038101906102609190613768565b610831565b005b610281600480360381019061027c91906138fc565b610891565b60405161028e91906146af565b60405180910390f35b6102b160048036038101906102ac919061386e565b610923565b6040516102be9190614911565b60405180910390f35b6102e160048036038101906102dc9190613768565b6109c8565b005b6102fd60048036038101906102f891906138fc565b6109e8565b60405161030a9190614911565b60405180910390f35b61032d600480360381019061032891906138fc565b610a7f565b60405161033a91906145dc565b60405180910390f35b61035d60048036038101906103589190613703565b610b31565b60405161036a9190614911565b60405180910390f35b61037b610be9565b005b610385610c71565b60405161039291906145dc565b60405180910390f35b6103a3610c9b565b6040516103b091906146af565b60405180910390f35b6103d360048036038101906103ce91906138fc565b610d2d565b6040516103e091906146af565b60405180910390f35b61040360048036038101906103fe9190613832565b610dd3565b005b61041f600480360381019061041a91906138fc565b610de9565b60405161042c91906146af565b60405180910390f35b61044f600480360381019061044a91906138fc565b610f87565b60405161045c919061465e565b60405180910390f35b61047f600480360381019061047a91906137b7565b610f9f565b005b61049b600480360381019061049691906138fc565b611001565b6040516104a891906146af565b60405180910390f35b6104cb60048036038101906104c691906138fc565b6112ec565b6040516104d89190614679565b60405180910390f35b6104fb60048036038101906104f691906138fc565b61130c565b6040516105089190614694565b60405180910390f35b61052b6004803603810190610526919061372c565b611354565b6040516105389190614643565b60405180910390f35b6105496113e8565b6040516105569190614911565b60405180910390f35b61057960048036038101906105749190613703565b611654565b005b60007f780e9d63000000000000000000000000000000000000000000000000000000007bffffffffffffffffffffffffffffffffffffffffffffffffffffffff1916827bffffffffffffffffffffffffffffffffffffffffffffffffffffffff191614806105ee57506105ed8261174c565b5b9050919050565b60606000805461060490614d55565b80601f016020809104026020016040519081016040528092919081815260200182805461063090614d55565b801561067d5780601f106106525761010080835404028352916020019161067d565b820191906000526020600020905b81548152906001019060200180831161066057829003601f168201915b5050505050905090565b60006106928261182e565b6106d1576040517f08c379a00000000000000000000000000000000000000000000000000000000081526004016106c890614851565b60405180910390fd5b6004600083815260200190815260200160002060009054906101000a900473ffffffffffffffffffffffffffffffffffffffff169050919050565b600061071782610a7f565b90508073ffffffffffffffffffffffffffffffffffffffff168373ffffffffffffffffffffffffffffffffffffffff161415610788576040517f08c379a000000000000000000000000000000000000000000000000000000000815260040161077f906148b1565b60405180910390fd5b8073ffffffffffffffffffffffffffffffffffffffff166107a761189a565b73ffffffffffffffffffffffffffffffffffffffff1614806107d657506107d5816107d061189a565b611354565b5b610815576040517f08c379a000000000000000000000000000000000000000000000000000000000815260040161080c906147d1565b60405180910390fd5b61081f83836118a2565b505050565b6000600880549050905090565b61084261083c61189a565b8261195b565b610881576040517f08c379a0000000000000000000000000000000000000000000000000000000008152600401610878906148d1565b60405180910390fd5b61088c838383611a39565b505050565b606060006002836108a29190614e2f565b11156108e5576040518060400160405280600581526020017f626c61636b000000000000000000000000000000000000000000000000000000815250905061091e565b6040518060400160405280600581526020017f776869746500000000000000000000000000000000000000000000000000000081525090505b919050565b600061092e83610b31565b821061096f576040517f08c379a0000000000000000000000000000000000000000000000000000000008152600401610966906146d1565b60405180910390fd5b600660008473ffffffffffffffffffffffffffffffffffffffff1673ffffffffffffffffffffffffffffffffffffffff168152602001908152602001600020600083815260200190815260200160002054905092915050565b6109e383838360405180602001604052806000815250610f9f565b505050565b60006109f2610824565b8210610a33576040517f08c379a0000000000000000000000000000000000000000000000000000000008152600401610a2a906148f1565b60405180910390fd5b60088281548110610a6d577f4e487b7100000000000000000000000000000000000000000000000000000000600052603260045260246000fd5b90600052602060002001549050919050565b6000806002600084815260200190815260200160002060009054906101000a900473ffffffffffffffffffffffffffffffffffffffff169050600073ffffffffffffffffffffffffffffffffffffffff168173ffffffffffffffffffffffffffffffffffffffff161415610b28576040517f08c379a0000000000000000000000000000000000000000000000000000000008152600401610b1f90614811565b60405180910390fd5b80915050919050565b60008073ffffffffffffffffffffffffffffffffffffffff168273ffffffffffffffffffffffffffffffffffffffff161415610ba2576040517f08c379a0000000000000000000000000000000000000000000000000000000008152600401610b99906147f1565b60405180910390fd5b600360008373ffffffffffffffffffffffffffffffffffffffff1673ffffffffffffffffffffffffffffffffffffffff168152602001908152602001600020549050919050565b610bf161189a565b73ffffffffffffffffffffffffffffffffffffffff16610c0f610c71565b73ffffffffffffffffffffffffffffffffffffffff1614610c65576040517f08c379a0000000000000000000000000000000000000000000000000000000008152600401610c5c90614871565b60405180910390fd5b610c6f6000611c95565b565b6000600a60009054906101000a900473ffffffffffffffffffffffffffffffffffffffff16905090565b606060018054610caa90614d55565b80601f0160208091040260200160405190810160405280929190818152602001828054610cd690614d55565b8015610d235780601f10610cf857610100808354040283529160200191610d23565b820191906000526020600020905b815481529060010190602001808311610d0657829003601f168201915b5050505050905090565b60606000600283610d3e9190614e2f565b1115610d8b57610d65600383610d549190614e2f565b6013610d6091906149c5565b611d5b565b604051602001610d7591906145af565b6040516020818303038152906040529050610dce565b610dac600283610d9b9190614e2f565b6014610da791906149c5565b611d5b565b604051602001610dbc919061429d565b60405160208183030381529060405290505b919050565b610de5610dde61189a565b8383611f30565b5050565b60606000600d60008481526020019081526020016000205460001c90506000610e1182610d2d565b90506000610e22836009600161209d565b90506000610e33846007600161209d565b90506000610e458561016860016120da565b90506000610eb36003600d60008b815260200190815260200160002054901c600c60008b815260200190815260200160002060009054906101000a900460e81b7cffffffffffffffffffffffffffffffffffffffffffffffffffffffffff191661210490919063ffffffff16565b90506000610ec487600a60046120da565b90506000610ed588601460056120da565b90506000610f436002600d60008e815260200190815260200160002054901c600c60008e815260200190815260200160002060009054906101000a900460e81b7cffffffffffffffffffffffffffffffffffffffffffffffffffffffffff191661210490919063ffffffff16565b878887878a8c8e8a8a604051602001610f659a999897969594939291906142ca565b6040516020818303038152906040529050809950505050505050505050919050565b600d6020528060005260406000206000915090505481565b610fb0610faa61189a565b8361195b565b610fef576040517f08c379a0000000000000000000000000000000000000000000000000000000008152600401610fe6906148d1565b60405180910390fd5b610ffb84848484612482565b50505050565b606061100c8261182e565b61104b576040517f08c379a0000000000000000000000000000000000000000000000000000000008152600401611042906147b1565b60405180910390fd5b6000611056836124de565b604051602001611066919061427b565b604051602081830303815290604052905060006110e36003600d600087815260200190815260200160002054901c600c600087815260200190815260200160002060009054906101000a900460e81b7cffffffffffffffffffffffffffffffffffffffffffffffffffffffffff191661210490919063ffffffff16565b61114d6002600d600088815260200190815260200160002054901c600c600088815260200190815260200160002060009054906101000a900460e81b7cffffffffffffffffffffffffffffffffffffffffffffffffffffffffff191661210490919063ffffffff16565b60405160200161115e929190614432565b6040516020818303038152906040529050600061118261117d8661268b565b6126c2565b90506112c38383611192886124de565b6111fc6003600d60008c815260200190815260200160002054901c600c60008c815260200190815260200160002060009054906101000a900460e81b7cffffffffffffffffffffffffffffffffffffffffffffffffffffffffff191661210490919063ffffffff16565b6112666002600d60008d815260200190815260200160002054901c600c60008d815260200190815260200160002060009054906101000a900460e81b7cffffffffffffffffffffffffffffffffffffffffffffffffffffffffff191661210490919063ffffffff16565b61129860146112748d610a7f565b73ffffffffffffffffffffffffffffffffffffffff1661286190919063ffffffff16565b876040516020016112af97969594939291906144c5565b6040516020818303038152906040526126c2565b6040516020016112d3919061458d565b6040516020818303038152906040529350505050919050565b600c6020528060005260406000206000915054906101000a900460e81b81565b60008060028361131c9190614e2f565b111561132b576001905061134f565b7fffffffffffffffffffffffffffffffffffffffffffffffffffffffffffffffff90505b919050565b6000600560008473ffffffffffffffffffffffffffffffffffffffff1673ffffffffffffffffffffffffffffffffffffffff16815260200190815260200160002060008373ffffffffffffffffffffffffffffffffffffffff1673ffffffffffffffffffffffffffffffffffffffff16815260200190815260200160002060009054906101000a900460ff16905092915050565b60006113f4600b612b18565b6000611400600b612b2e565b905061140c3382612b3c565b6001436114199190614bf4565b40333060405160200161142e9392919061423e565b60405160208183030381529060405280519060200120600d6000838152602001908152602001600020819055506010600d6000838152602001908152602001600020546002602081106114aa577f4e487b7100000000000000000000000000000000000000000000000000000000600052603260045260246000fd5b1a60f81b7effffffffffffffffffffffffffffffffffffffffffffffffffffffffffffff19167cffffffffffffffffffffffffffffffffffffffffffffffffffffffffff1916901c6008600d600084815260200190815260200160002054600160208110611541577f4e487b7100000000000000000000000000000000000000000000000000000000600052603260045260246000fd5b1a60f81b7effffffffffffffffffffffffffffffffffffffffffffffffffffffffffffff19167dffffffffffffffffffffffffffffffffffffffffffffffffffffffffffff1916901c600d6000848152602001908152602001600020546000602081106115d7577f4e487b7100000000000000000000000000000000000000000000000000000000600052603260045260246000fd5b1a60f81b7effffffffffffffffffffffffffffffffffffffffffffffffffffffffffffff1916177dffffffffffffffffffffffffffffffffffffffffffffffffffffffffffff191617600c600083815260200190815260200160002060006101000a81548162ffffff021916908360e81c02179055508091505090565b61165c61189a565b73ffffffffffffffffffffffffffffffffffffffff1661167a610c71565b73ffffffffffffffffffffffffffffffffffffffff16146116d0576040517f08c379a00000000000000000000000000000000000000000000000000000000081526004016116c790614871565b60405180910390fd5b600073ffffffffffffffffffffffffffffffffffffffff168173ffffffffffffffffffffffffffffffffffffffff161415611740576040517f08c379a000000000000000000000000000000000000000000000000000000000815260040161173790614711565b60405180910390fd5b61174981611c95565b50565b60007f80ac58cd000000000000000000000000000000000000000000000000000000007bffffffffffffffffffffffffffffffffffffffffffffffffffffffff1916827bffffffffffffffffffffffffffffffffffffffffffffffffffffffff1916148061181757507f5b5e139f000000000000000000000000000000000000000000000000000000007bffffffffffffffffffffffffffffffffffffffffffffffffffffffff1916827bffffffffffffffffffffffffffffffffffffffffffffffffffffffff1916145b80611827575061182682612d0a565b5b9050919050565b60008073ffffffffffffffffffffffffffffffffffffffff166002600084815260200190815260200160002060009054906101000a900473ffffffffffffffffffffffffffffffffffffffff1673ffffffffffffffffffffffffffffffffffffffff1614159050919050565b600033905090565b816004600083815260200190815260200160002060006101000a81548173ffffffffffffffffffffffffffffffffffffffff021916908373ffffffffffffffffffffffffffffffffffffffff160217905550808273ffffffffffffffffffffffffffffffffffffffff1661191583610a7f565b73ffffffffffffffffffffffffffffffffffffffff167f8c5be1e5ebec7d5bd14f71427d1e84f3dd0314c0f7b2291e5b200ac8c7c3b92560405160405180910390a45050565b60006119668261182e565b6119a5576040517f08c379a000000000000000000000000000000000000000000000000000000000815260040161199c90614791565b60405180910390fd5b60006119b083610a7f565b90508073ffffffffffffffffffffffffffffffffffffffff168473ffffffffffffffffffffffffffffffffffffffff161480611a1f57508373ffffffffffffffffffffffffffffffffffffffff16611a0784610687565b73ffffffffffffffffffffffffffffffffffffffff16145b80611a305750611a2f8185611354565b5b91505092915050565b8273ffffffffffffffffffffffffffffffffffffffff16611a5982610a7f565b73ffffffffffffffffffffffffffffffffffffffff1614611aaf576040517f08c379a0000000000000000000000000000000000000000000000000000000008152600401611aa690614891565b60405180910390fd5b600073ffffffffffffffffffffffffffffffffffffffff168273ffffffffffffffffffffffffffffffffffffffff161415611b1f576040517f08c379a0000000000000000000000000000000000000000000000000000000008152600401611b1690614751565b60405180910390fd5b611b2a838383612d74565b611b356000826118a2565b6001600360008573ffffffffffffffffffffffffffffffffffffffff1673ffffffffffffffffffffffffffffffffffffffff1681526020019081526020016000206000828254611b859190614bf4565b925050819055506001600360008473ffffffffffffffffffffffffffffffffffffffff1673ffffffffffffffffffffffffffffffffffffffff1681526020019081526020016000206000828254611bdc91906149c5565b92505081905550816002600083815260200190815260200160002060006101000a81548173ffffffffffffffffffffffffffffffffffffffff021916908373ffffffffffffffffffffffffffffffffffffffff160217905550808273ffffffffffffffffffffffffffffffffffffffff168473ffffffffffffffffffffffffffffffffffffffff167fddf252ad1be2c89b69c2b068fc378daa952ba7f163c4a11628f55a4df523b3ef60405160405180910390a4505050565b6000600a60009054906101000a900473ffffffffffffffffffffffffffffffffffffffff16905081600a60006101000a81548173ffffffffffffffffffffffffffffffffffffffff021916908373ffffffffffffffffffffffffffffffffffffffff1602179055508173ffffffffffffffffffffffffffffffffffffffff168173ffffffffffffffffffffffffffffffffffffffff167f8be0079c531659141344cd1fd0a4f28419497f9722a3daafe3b4186f6b6457e060405160405180910390a35050565b60606000821415611da3576040518060400160405280600181526020017f30000000000000000000000000000000000000000000000000000000000000008152509050611f2b565b600082905060005b60008214611dd5578080611dbe90614db8565b915050600a82611dce9190614a52565b9150611dab565b60008167ffffffffffffffff811115611e17577f4e487b7100000000000000000000000000000000000000000000000000000000600052604160045260246000fd5b6040519080825280601f01601f191660200182016040528015611e495781602001600182028036833780820191505090505b50905060008290505b60008614611f2357600181611e679190614bf4565b90506000600a8088611e799190614a52565b611e839190614b9a565b87611e8e9190614bf4565b6030611e9a9190614a1b565b905060008160f81b905080848481518110611ede577f4e487b7100000000000000000000000000000000000000000000000000000000600052603260045260246000fd5b60200101907effffffffffffffffffffffffffffffffffffffffffffffffffffffffffffff1916908160001a905350600a88611f1a9190614a52565b97505050611e52565b819450505050505b919050565b8173ffffffffffffffffffffffffffffffffffffffff168373ffffffffffffffffffffffffffffffffffffffff161415611f9f576040517f08c379a0000000000000000000000000000000000000000000000000000000008152600401611f9690614771565b60405180910390fd5b80600560008573ffffffffffffffffffffffffffffffffffffffff1673ffffffffffffffffffffffffffffffffffffffff16815260200190815260200160002060008473ffffffffffffffffffffffffffffffffffffffff1673ffffffffffffffffffffffffffffffffffffffff16815260200190815260200160002060006101000a81548160ff0219169083151502179055508173ffffffffffffffffffffffffffffffffffffffff168373ffffffffffffffffffffffffffffffffffffffff167f17307eab39ab6107e8899845ad3d59bd9653f200f220920489ca2b5937696c31836040516120909190614643565b60405180910390a3505050565b60606120d16120ab8561130c565b8385876120b89190614e2f565b6120c291906149c5565b6120cc9190614a83565b612e88565b90509392505050565b60606120fb82856120eb9190614e2f565b846120f691906149c5565b611d5b565b90509392505050565b60606000600667ffffffffffffffff811115612149577f4e487b7100000000000000000000000000000000000000000000000000000000600052604160045260246000fd5b6040519080825280601f01601f19166020018201604052801561217b5781602001600182028036833780820191505090505b50905060005b6003811015612477577f3031323334353637383961626364656600000000000000000000000000000000600f8583600381106121e6577f4e487b7100000000000000000000000000000000000000000000000000000000600052603260045260246000fd5b1a60f81b878460038110612223577f4e487b7100000000000000000000000000000000000000000000000000000000600052603260045260246000fd5b1a60f81b1860f81c1660ff1660108110612266577f4e487b7100000000000000000000000000000000000000000000000000000000600052603260045260246000fd5b1a60f81b82600160028461227a9190614b9a565b61228491906149c5565b815181106122bb577f4e487b7100000000000000000000000000000000000000000000000000000000600052603260045260246000fd5b60200101907effffffffffffffffffffffffffffffffffffffffffffffffffffffffffffff1916908160001a9053507f3031323334353637383961626364656600000000000000000000000000000000600f6004868460038110612348577f4e487b7100000000000000000000000000000000000000000000000000000000600052603260045260246000fd5b1a60f81b888560038110612385577f4e487b7100000000000000000000000000000000000000000000000000000000600052603260045260246000fd5b1a60f81b187effffffffffffffffffffffffffffffffffffffffffffffffffffffffffffff1916901c60f81c1660ff16601081106123ec577f4e487b7100000000000000000000000000000000000000000000000000000000600052603260045260246000fd5b1a60f81b826002836123fe9190614b9a565b81518110612435577f4e487b7100000000000000000000000000000000000000000000000000000000600052603260045260246000fd5b60200101907effffffffffffffffffffffffffffffffffffffffffffffffffffffffffffff1916908160001a905350808061246f90614db8565b915050612181565b508091505092915050565b61248d848484611a39565b6124998484848461310b565b6124d8576040517f08c379a00000000000000000000000000000000000000000000000000000000081526004016124cf906146f1565b60405180910390fd5b50505050565b60606000821415612526576040518060400160405280600181526020017f30000000000000000000000000000000000000000000000000000000000000008152509050612686565b600082905060005b6000821461255857808061254190614db8565b915050600a826125519190614a52565b915061252e565b60008167ffffffffffffffff81111561259a577f4e487b7100000000000000000000000000000000000000000000000000000000600052604160045260246000fd5b6040519080825280601f01601f1916602001820160405280156125cc5781602001600182028036833780820191505090505b5090505b6000851461267f576001826125e59190614bf4565b9150600a856125f49190614e2f565b603061260091906149c5565b60f81b81838151811061263c577f4e487b7100000000000000000000000000000000000000000000000000000000600052603260045260246000fd5b60200101907effffffffffffffffffffffffffffffffffffffffffffffffffffffffffffff1916908160001a905350600a856126789190614a52565b94506125d0565b8093505050505b919050565b6060600061269883610de9565b6040516020016126a89190614477565b604051602081830303815290604052905080915050919050565b60606000825114156126e55760405180602001604052806000815250905061285c565b6000604051806060016040528060408152602001615ce0604091399050600060036002855161271491906149c5565b61271e9190614a52565b600461272a9190614b9a565b9050600060208261273b91906149c5565b67ffffffffffffffff81111561277a577f4e487b7100000000000000000000000000000000000000000000000000000000600052604160045260246000fd5b6040519080825280601f01601f1916602001820160405280156127ac5781602001600182028036833780820191505090505b509050818152600183018586518101602084015b8183101561281b576003830192508251603f8160121c168501518253600182019150603f81600c1c168501518253600182019150603f8160061c168501518253600182019150603f81168501518253600182019150506127c0565b600389510660018114612835576002811461284557612850565b613d3d60f01b6002830352612850565b603d60f81b60018303525b50505050508093505050505b919050565b6060600060028360026128749190614b9a565b61287e91906149c5565b67ffffffffffffffff8111156128bd577f4e487b7100000000000000000000000000000000000000000000000000000000600052604160045260246000fd5b6040519080825280601f01601f1916602001820160405280156128ef5781602001600182028036833780820191505090505b5090507f30000000000000000000000000000000000000000000000000000000000000008160008151811061294d577f4e487b7100000000000000000000000000000000000000000000000000000000600052603260045260246000fd5b60200101907effffffffffffffffffffffffffffffffffffffffffffffffffffffffffffff1916908160001a9053507f7800000000000000000000000000000000000000000000000000000000000000816001815181106129d7577f4e487b7100000000000000000000000000000000000000000000000000000000600052603260045260246000fd5b60200101907effffffffffffffffffffffffffffffffffffffffffffffffffffffffffffff1916908160001a90535060006001846002612a179190614b9a565b612a2191906149c5565b90505b6001811115612b0d577f3031323334353637383961626364656600000000000000000000000000000000600f861660108110612a89577f4e487b7100000000000000000000000000000000000000000000000000000000600052603260045260246000fd5b1a60f81b828281518110612ac6577f4e487b7100000000000000000000000000000000000000000000000000000000600052603260045260246000fd5b60200101907effffffffffffffffffffffffffffffffffffffffffffffffffffffffffffff1916908160001a905350600485901c945080612b0690614d2b565b9050612a24565b508091505092915050565b6001816000016000828254019250508190555050565b600081600001549050919050565b600073ffffffffffffffffffffffffffffffffffffffff168273ffffffffffffffffffffffffffffffffffffffff161415612bac576040517f08c379a0000000000000000000000000000000000000000000000000000000008152600401612ba390614831565b60405180910390fd5b612bb58161182e565b15612bf5576040517f08c379a0000000000000000000000000000000000000000000000000000000008152600401612bec90614731565b60405180910390fd5b612c0160008383612d74565b6001600360008473ffffffffffffffffffffffffffffffffffffffff1673ffffffffffffffffffffffffffffffffffffffff1681526020019081526020016000206000828254612c5191906149c5565b92505081905550816002600083815260200190815260200160002060006101000a81548173ffffffffffffffffffffffffffffffffffffffff021916908373ffffffffffffffffffffffffffffffffffffffff160217905550808273ffffffffffffffffffffffffffffffffffffffff16600073ffffffffffffffffffffffffffffffffffffffff167fddf252ad1be2c89b69c2b068fc378daa952ba7f163c4a11628f55a4df523b3ef60405160405180910390a45050565b60007f01ffc9a7000000000000000000000000000000000000000000000000000000007bffffffffffffffffffffffffffffffffffffffffffffffffffffffff1916827bffffffffffffffffffffffffffffffffffffffffffffffffffffffff1916149050919050565b612d7f8383836132a2565b600073ffffffffffffffffffffffffffffffffffffffff168373ffffffffffffffffffffffffffffffffffffffff161415612dc257612dbd816132a7565b612e01565b8173ffffffffffffffffffffffffffffffffffffffff168373ffffffffffffffffffffffffffffffffffffffff1614612e0057612dff83826132f0565b5b5b600073ffffffffffffffffffffffffffffffffffffffff168273ffffffffffffffffffffffffffffffffffffffff161415612e4457612e3f8161345d565b612e83565b8273ffffffffffffffffffffffffffffffffffffffff168273ffffffffffffffffffffffffffffffffffffffff1614612e8257612e8182826135a0565b5b5b505050565b60606000821415612ed0576040518060400160405280600181526020017f30000000000000000000000000000000000000000000000000000000000000008152509050613106565b60008083129050600081612ee45783612eef565b83612eee90614e60565b5b9050600081905060005b60008314612f23578080612f0c90614db8565b915050600a83612f1c9190614a52565b9250612ef9565b8315612f365780612f3390614db8565b90505b60008167ffffffffffffffff811115612f78577f4e487b7100000000000000000000000000000000000000000000000000000000600052604160045260246000fd5b6040519080825280601f01601f191660200182016040528015612faa5781602001600182028036833780820191505090505b5090506000600183612fbc9190614bf4565b90505b6000841461306b576000600a85612fd69190614e2f565b6030612fe291906149c5565b905060008160f81b905080848481518110613026577f4e487b7100000000000000000000000000000000000000000000000000000000600052603260045260246000fd5b60200101907effffffffffffffffffffffffffffffffffffffffffffffffffffffffffffff1916908160001a905350600a866130629190614a52565b95505050612fbf565b85156130fc577f2d00000000000000000000000000000000000000000000000000000000000000826000815181106130cc577f4e487b7100000000000000000000000000000000000000000000000000000000600052603260045260246000fd5b60200101907effffffffffffffffffffffffffffffffffffffffffffffffffffffffffffff1916908160001a9053505b8196505050505050505b919050565b600061312c8473ffffffffffffffffffffffffffffffffffffffff1661361f565b15613295578373ffffffffffffffffffffffffffffffffffffffff1663150b7a0261315561189a565b8786866040518563ffffffff1660e01b815260040161317794939291906145f7565b602060405180830381600087803b15801561319157600080fd5b505af19250505080156131c257506040513d601f19601f820116820180604052508101906131bf91906138d3565b60015b613245573d80600081146131f2576040519150601f19603f3d011682016040523d82523d6000602084013e6131f7565b606091505b5060008151141561323d576040517f08c379a0000000000000000000000000000000000000000000000000000000008152600401613234906146f1565b60405180910390fd5b805181602001fd5b63150b7a0260e01b7bffffffffffffffffffffffffffffffffffffffffffffffffffffffff1916817bffffffffffffffffffffffffffffffffffffffffffffffffffffffff19161491505061329a565b600190505b949350505050565b505050565b6008805490506009600083815260200190815260200160002081905550600881908060018154018082558091505060019003906000526020600020016000909190919091505550565b600060016132fd84610b31565b6133079190614bf4565b90506000600760008481526020019081526020016000205490508181146133ec576000600660008673ffffffffffffffffffffffffffffffffffffffff1673ffffffffffffffffffffffffffffffffffffffff168152602001908152602001600020600084815260200190815260200160002054905080600660008773ffffffffffffffffffffffffffffffffffffffff1673ffffffffffffffffffffffffffffffffffffffff168152602001908152602001600020600084815260200190815260200160002081905550816007600083815260200190815260200160002081905550505b6007600084815260200190815260200160002060009055600660008573ffffffffffffffffffffffffffffffffffffffff1673ffffffffffffffffffffffffffffffffffffffff16815260200190815260200160002060008381526020019081526020016000206000905550505050565b600060016008805490506134719190614bf4565b90506000600960008481526020019081526020016000205490506000600883815481106134c7577f4e487b7100000000000000000000000000000000000000000000000000000000600052603260045260246000fd5b90600052602060002001549050806008838154811061350f577f4e487b7100000000000000000000000000000000000000000000000000000000600052603260045260246000fd5b906000526020600020018190555081600960008381526020019081526020016000208190555060096000858152602001908152602001600020600090556008805480613584577f4e487b7100000000000000000000000000000000000000000000000000000000600052603160045260246000fd5b6001900381819060005260206000200160009055905550505050565b60006135ab83610b31565b905081600660008573ffffffffffffffffffffffffffffffffffffffff1673ffffffffffffffffffffffffffffffffffffffff168152602001908152602001600020600083815260200190815260200160002081905550806007600084815260200190815260200160002081905550505050565b600080823b905060008111915050919050565b600061364561364084614951565b61492c565b90508281526020810184848401111561365d57600080fd5b613668848285614ce9565b509392505050565b60008135905061367f81615c83565b92915050565b60008135905061369481615c9a565b92915050565b6000813590506136a981615cb1565b92915050565b6000815190506136be81615cb1565b92915050565b600082601f8301126136d557600080fd5b81356136e5848260208601613632565b91505092915050565b6000813590506136fd81615cc8565b92915050565b60006020828403121561371557600080fd5b600061372384828501613670565b91505092915050565b6000806040838503121561373f57600080fd5b600061374d85828601613670565b925050602061375e85828601613670565b9150509250929050565b60008060006060848603121561377d57600080fd5b600061378b86828701613670565b935050602061379c86828701613670565b92505060406137ad868287016136ee565b9150509250925092565b600080600080608085870312156137cd57600080fd5b60006137db87828801613670565b94505060206137ec87828801613670565b93505060406137fd878288016136ee565b925050606085013567ffffffffffffffff81111561381a57600080fd5b613826878288016136c4565b91505092959194509250565b6000806040838503121561384557600080fd5b600061385385828601613670565b925050602061386485828601613685565b9150509250929050565b6000806040838503121561388157600080fd5b600061388f85828601613670565b92505060206138a0858286016136ee565b9150509250929050565b6000602082840312156138bc57600080fd5b60006138ca8482850161369a565b91505092915050565b6000602082840312156138e557600080fd5b60006138f3848285016136af565b91505092915050565b60006020828403121561390e57600080fd5b600061391c848285016136ee565b91505092915050565b61392e81614c28565b82525050565b61394561394082614c28565b614e01565b82525050565b61395481614c3a565b82525050565b61396381614c72565b82525050565b61397a61397582614c72565b614e13565b82525050565b61398981614c46565b82525050565b600061399a82614982565b6139a48185614998565b93506139b4818560208601614cf8565b6139bd81614f65565b840191505092915050565b6139d181614ca8565b82525050565b60006139e28261498d565b6139ec81856149a9565b93506139fc818560208601614cf8565b613a0581614f65565b840191505092915050565b6000613a1b8261498d565b613a2581856149ba565b9350613a35818560208601614cf8565b80840191505092915050565b6000613a4e6009836149ba565b9150613a5982614f83565b600982019050919050565b6000613a716011836149ba565b9150613a7c82614fac565b601182019050919050565b6000613a946002836149ba565b9150613a9f82614fd5565b600282019050919050565b6000613ab76008836149ba565b9150613ac282614ffe565b600882019050919050565b6000613ada602b836149a9565b9150613ae582615027565b604082019050919050565b6000613afd6032836149a9565b9150613b0882615076565b604082019050919050565b6000613b206011836149ba565b9150613b2b826150c5565b601182019050919050565b6000613b436004836149ba565b9150613b4e826150ee565b600482019050919050565b6000613b666026836149a9565b9150613b7182615117565b604082019050919050565b6000613b89601c836149a9565b9150613b9482615166565b602082019050919050565b6000613bac6009836149ba565b9150613bb78261518f565b600982019050919050565b6000613bcf6006836149ba565b9150613bda826151b8565b600682019050919050565b6000613bf2601b836149ba565b9150613bfd826151e1565b601b82019050919050565b6000613c156016836149ba565b9150613c208261520a565b601682019050919050565b6000613c386036836149ba565b9150613c4382615233565b603682019050919050565b6000613c5b6024836149a9565b9150613c6682615282565b604082019050919050565b6000613c7e6019836149a9565b9150613c89826152d1565b602082019050919050565b6000613ca16009836149ba565b9150613cac826152fa565b600982019050919050565b6000613cc46009836149ba565b9150613ccf82615323565b600982019050919050565b6000613ce7602c836149a9565b9150613cf28261534c565b604082019050919050565b6000613d0a6009836149a9565b9150613d158261539b565b602082019050919050565b6000613d2d6001836149ba565b9150613d38826153c4565b600182019050919050565b6000613d506013836149ba565b9150613d5b826153ed565b601382019050919050565b6000613d73600a836149ba565b9150613d7e82615416565b600a82019050919050565b6000613d966038836149a9565b9150613da18261543f565b604082019050919050565b6000613db9601a836149ba565b9150613dc48261548e565b601a82019050919050565b6000613ddc602a836149a9565b9150613de7826154b7565b604082019050919050565b6000613dff6029836149a9565b9150613e0a82615506565b604082019050919050565b6000613e22600d836149ba565b9150613e2d82615555565b600d82019050919050565b6000613e456009836149ba565b9150613e508261557e565b600982019050919050565b6000613e686020836149a9565b9150613e73826155a7565b602082019050919050565b6000613e8b6003836149ba565b9150613e96826155d0565b600382019050919050565b6000613eae602c836149a9565b9150613eb9826155f9565b604082019050919050565b6000613ed16020836149a9565b9150613edc82615648565b602082019050919050565b6000613ef4600d836149ba565b9150613eff82615671565b600d82019050919050565b6000613f176029836149a9565b9150613f228261569a565b604082019050919050565b6000613f3a6025836149ba565b9150613f45826156e9565b602582019050919050565b6000613f5d6004836149ba565b9150613f6882615738565b600482019050919050565b6000613f806011836149ba565b9150613f8b82615761565b601182019050919050565b6000613fa3600c836149ba565b9150613fae8261578a565b600c82019050919050565b6000613fc6605f836149ba565b9150613fd1826157b3565b605f82019050919050565b6000613fe96009836149ba565b9150613ff482615828565b600982019050919050565b600061400c602f836149ba565b915061401782615851565b602f82019050919050565b600061402f6021836149a9565b915061403a826158a0565b604082019050919050565b60006140526024836149ba565b915061405d826158ef565b602482019050919050565b60006140756054836149ba565b91506140808261593e565b605482019050919050565b6000614098601d836149ba565b91506140a3826159b3565b601d82019050919050565b60006140bb6031836149a9565b91506140c6826159dc565b604082019050919050565b60006140de6039836149ba565b91506140e982615a2b565b603982019050919050565b60006141016018836149ba565b915061410c82615a7a565b601882019050919050565b6000614124603e836149ba565b915061412f82615aa3565b603e82019050919050565b6000614147602c836149a9565b915061415282615af2565b604082019050919050565b600061416a6004836149ba565b915061417582615b41565b600482019050919050565b600061418d600b836149ba565b915061419882615b6a565b600b82019050919050565b60006141b06049836149ba565b91506141bb82615b93565b604982019050919050565b60006141d36006836149ba565b91506141de82615c08565b600682019050919050565b60006141f66007836149ba565b915061420182615c31565b600782019050919050565b6000614219601a836149ba565b915061422482615c5a565b601a82019050919050565b61423881614cd2565b82525050565b600061424a8286613969565b60208201915061425a8285613934565b60148201915061426a8284613934565b601482019150819050949350505050565b600061428682613aaa565b91506142928284613a10565b915081905092915050565b60006142a882613b36565b91506142b48284613a10565b91506142bf82613f96565b915081905092915050565b60006142d582613be5565b91506142e082614045565b91506142ec828d613a10565b91506142f782613e38565b915061430282614117565b915061430e828c613a10565b915061431982613d20565b9150614325828b613a10565b915061433082613b9f565b915061433c828a613a10565b915061434782613a64565b915061435282613d66565b915061435e8289613a10565b915061436982613f73565b9150614374826140f4565b91506143808288613a10565b915061438b82614180565b91506143978287613a10565b91506143a282613cb7565b91506143ad82613c94565b91506143b98286613a10565b91506143c482613c08565b91506143cf82613a41565b91506143db8285613a10565b91506143e6826141a3565b91506143f182613a41565b91506143fd8284613a10565b9150614408826141a3565b915061441382613f50565b915061441e82613f50565b91508190509b9a5050505050505050505050565b600061443d82613dac565b91506144498285613a10565b915061445482613bc2565b91506144608284613a10565b915061446b82613e7e565b91508190509392505050565b600061448282613fb9565b915061448d82614068565b9150614498826140d1565b91506144a3826141e9565b91506144af8284613a10565b91506144ba826141c6565b915081905092915050565b60006144d082613fdc565b91506144dc828a613a10565b91506144e782613b13565b91506144f38289613a10565b91506144fe82613fff565b915061450a8288613a10565b915061451582613c2b565b91506145218287613a10565b915061452c82613f2d565b91506145388286613a10565b915061454382613e15565b915061454f8285613a10565b915061455a82613ee7565b91506145658261420c565b91506145718284613a10565b915061457c82613a87565b915081905098975050505050505050565b60006145988261408b565b91506145a48284613a10565b915081905092915050565b60006145ba8261415d565b91506145c68284613a10565b91506145d182613d43565b915081905092915050565b60006020820190506145f16000830184613925565b92915050565b600060808201905061460c6000830187613925565b6146196020830186613925565b614626604083018561422f565b8181036060830152614638818461398f565b905095945050505050565b6000602082019050614658600083018461394b565b92915050565b6000602082019050614673600083018461395a565b92915050565b600060208201905061468e6000830184613980565b92915050565b60006020820190506146a960008301846139c8565b92915050565b600060208201905081810360008301526146c981846139d7565b905092915050565b600060208201905081810360008301526146ea81613acd565b9050919050565b6000602082019050818103600083015261470a81613af0565b9050919050565b6000602082019050818103600083015261472a81613b59565b9050919050565b6000602082019050818103600083015261474a81613b7c565b9050919050565b6000602082019050818103600083015261476a81613c4e565b9050919050565b6000602082019050818103600083015261478a81613c71565b9050919050565b600060208201905081810360008301526147aa81613cda565b9050919050565b600060208201905081810360008301526147ca81613cfd565b9050919050565b600060208201905081810360008301526147ea81613d89565b9050919050565b6000602082019050818103600083015261480a81613dcf565b9050919050565b6000602082019050818103600083015261482a81613df2565b9050919050565b6000602082019050818103600083015261484a81613e5b565b9050919050565b6000602082019050818103600083015261486a81613ea1565b9050919050565b6000602082019050818103600083015261488a81613ec4565b9050919050565b600060208201905081810360008301526148aa81613f0a565b9050919050565b600060208201905081810360008301526148ca81614022565b9050919050565b600060208201905081810360008301526148ea816140ae565b9050919050565b6000602082019050818103600083015261490a8161413a565b9050919050565b6000602082019050614926600083018461422f565b92915050565b6000614936614947565b90506149428282614d87565b919050565b6000604051905090565b600067ffffffffffffffff82111561496c5761496b614f36565b5b61497582614f65565b9050602081019050919050565b600081519050919050565b600081519050919050565b600082825260208201905092915050565b600082825260208201905092915050565b600081905092915050565b60006149d082614cd2565b91506149db83614cd2565b9250827fffffffffffffffffffffffffffffffffffffffffffffffffffffffffffffffff03821115614a1057614a0f614ea9565b5b828201905092915050565b6000614a2682614cdc565b9150614a3183614cdc565b92508260ff03821115614a4757614a46614ea9565b5b828201905092915050565b6000614a5d82614cd2565b9150614a6883614cd2565b925082614a7857614a77614ed8565b5b828204905092915050565b6000614a8e82614ca8565b9150614a9983614ca8565b9250827f7fffffffffffffffffffffffffffffffffffffffffffffffffffffffffffffff0482116000841360008413161615614ad857614ad7614ea9565b5b817f80000000000000000000000000000000000000000000000000000000000000000583126000841260008413161615614b1557614b14614ea9565b5b827f80000000000000000000000000000000000000000000000000000000000000000582126000841360008412161615614b5257614b51614ea9565b5b827f7fffffffffffffffffffffffffffffffffffffffffffffffffffffffffffffff0582126000841260008412161615614b8f57614b8e614ea9565b5b828202905092915050565b6000614ba582614cd2565b9150614bb083614cd2565b9250817fffffffffffffffffffffffffffffffffffffffffffffffffffffffffffffffff0483118215151615614be957614be8614ea9565b5b828202905092915050565b6000614bff82614cd2565b9150614c0a83614cd2565b925082821015614c1d57614c1c614ea9565b5b828203905092915050565b6000614c3382614cb2565b9050919050565b60008115159050919050565b60007fffffff000000000000000000000000000000000000000000000000000000000082169050919050565b6000819050919050565b60007fffffffff0000000000000000000000000000000000000000000000000000000082169050919050565b6000819050919050565b600073ffffffffffffffffffffffffffffffffffffffff82169050919050565b6000819050919050565b600060ff82169050919050565b82818337600083830152505050565b60005b83811015614d16578082015181840152602081019050614cfb565b83811115614d25576000848401525b50505050565b6000614d3682614cd2565b91506000821415614d4a57614d49614ea9565b5b600182039050919050565b60006002820490506001821680614d6d57607f821691505b60208210811415614d8157614d80614f07565b5b50919050565b614d9082614f65565b810181811067ffffffffffffffff82111715614daf57614dae614f36565b5b80604052505050565b6000614dc382614cd2565b91507fffffffffffffffffffffffffffffffffffffffffffffffffffffffffffffffff821415614df657614df5614ea9565b5b600182019050919050565b6000614e0c82614e1d565b9050919050565b6000819050919050565b6000614e2882614f76565b9050919050565b6000614e3a82614cd2565b9150614e4583614cd2565b925082614e5557614e54614ed8565b5b828206905092915050565b6000614e6b82614ca8565b91507f8000000000000000000000000000000000000000000000000000000000000000821415614e9e57614e9d614ea9565b5b816000039050919050565b7f4e487b7100000000000000000000000000000000000000000000000000000000600052601160045260246000fd5b7f4e487b7100000000000000000000000000000000000000000000000000000000600052601260045260246000fd5b7f4e487b7100000000000000000000000000000000000000000000000000000000600052602260045260246000fd5b7f4e487b7100000000000000000000000000000000000000000000000000000000600052604160045260246000fd5b6000601f19601f8301169050919050565b60008160601b9050919050565b7f3c7265637420783d270000000000000000000000000000000000000000000000600082015250565b7f20313820313829207363616c6528312e31000000000000000000000000000000600082015250565b7f277d000000000000000000000000000000000000000000000000000000000000600082015250565b7f536d696c65792023000000000000000000000000000000000000000000000000600082015250565b7f455243373231456e756d657261626c653a206f776e657220696e646578206f7560008201527f74206f6620626f756e6473000000000000000000000000000000000000000000602082015250565b7f4552433732313a207472616e7366657220746f206e6f6e20455243373231526560008201527f63656976657220696d706c656d656e7465720000000000000000000000000000602082015250565b7f272c276465736372697074696f6e273a27000000000000000000000000000000600082015250565b7f4d31352000000000000000000000000000000000000000000000000000000000600082015250565b7f4f776e61626c653a206e6577206f776e657220697320746865207a65726f206160008201527f6464726573730000000000000000000000000000000000000000000000000000602082015250565b7f4552433732313a20746f6b656e20616c7265616479206d696e74656400000000600082015250565b7f2920726f74617465280000000000000000000000000000000000000000000000600082015250565b7f20616e6420230000000000000000000000000000000000000000000000000000600082015250565b7f3c67206d61736b3d2775726c28236d61736b5f5f6265616d29273e0000000000600082015250565b7f272066696c6c3d27626c61636b273e3c2f706174683e00000000000000000000600082015250565b7f272c202761747472696275746573273a205b7b2774726169745f74797065273a60008201527f2027636f6c6f7231272c202776616c7565273a20272300000000000000000000602082015250565b7f4552433732313a207472616e7366657220746f20746865207a65726f2061646460008201527f7265737300000000000000000000000000000000000000000000000000000000602082015250565b7f4552433732313a20617070726f766520746f2063616c6c657200000000000000600082015250565b7f3c7061746820643d270000000000000000000000000000000000000000000000600082015250565b7f20313820313829273e0000000000000000000000000000000000000000000000600082015250565b7f4552433732313a206f70657261746f7220717565727920666f72206e6f6e657860008201527f697374656e7420746f6b656e0000000000000000000000000000000000000000602082015250565b7f6e6f742065786973740000000000000000000000000000000000000000000000600082015250565b7f2000000000000000000000000000000000000000000000000000000000000000600082015250565b7f2061312c302e3735203020302c302031302c3000000000000000000000000000600082015250565b7f29272066696c6c3d272300000000000000000000000000000000000000000000600082015250565b7f4552433732313a20617070726f76652063616c6c6572206973206e6f74206f7760008201527f6e6572206e6f7220617070726f76656420666f7220616c6c0000000000000000602082015250565b7f5468697320536d696c65792069732074686520636f6c6f722023000000000000600082015250565b7f4552433732313a2062616c616e636520717565727920666f7220746865207a6560008201527f726f206164647265737300000000000000000000000000000000000000000000602082015250565b7f4552433732313a206f776e657220717565727920666f72206e6f6e657869737460008201527f656e7420746f6b656e0000000000000000000000000000000000000000000000602082015250565b7f7d5d2c20276f776e6572273a2700000000000000000000000000000000000000600082015250565b7f273e3c2f726563743e0000000000000000000000000000000000000000000000600082015250565b7f4552433732313a206d696e7420746f20746865207a65726f2061646472657373600082015250565b7f2121210000000000000000000000000000000000000000000000000000000000600082015250565b7f4552433732313a20617070726f76656420717565727920666f72206e6f6e657860008201527f697374656e7420746f6b656e0000000000000000000000000000000000000000602082015250565b7f4f776e61626c653a2063616c6c6572206973206e6f7420746865206f776e6572600082015250565b7f272c2027696d616765273a202700000000000000000000000000000000000000600082015250565b7f4552433732313a207472616e73666572206f6620746f6b656e2074686174206960008201527f73206e6f74206f776e0000000000000000000000000000000000000000000000602082015250565b7f277d2c7b2774726169745f74797065273a2027636f6c6f7232272c202776616c60008201527f7565273a20000000000000000000000000000000000000000000000000000000602082015250565b7f3c2f673e00000000000000000000000000000000000000000000000000000000600082015250565b7f272072783d273336273e3c2f726563743e000000000000000000000000000000600082015250565b7f6332203120342031203620300000000000000000000000000000000000000000600082015250565b7f3c7376672076696577426f783d27302030203336203336272066696c6c3d276e60008201527f6f6e652720786d6c6e733d27687474703a2f2f7777772e77332e6f72672f323060208201527f30302f737667272077696474683d27383027206865696768743d273830273e00604082015250565b7f7b276e616d65273a270000000000000000000000000000000000000000000000600082015250565b7f272c202765787465726e616c5f75726c273a2768747470733a2f2f6275726e7960008201527f626f79732e636f6d2f746f6b656e2f0000000000000000000000000000000000602082015250565b7f4552433732313a20617070726f76616c20746f2063757272656e74206f776e6560008201527f7200000000000000000000000000000000000000000000000000000000000000602082015250565b7f3c726563742077696474683d27333627206865696768743d273336272066696c60008201527f6c3d272300000000000000000000000000000000000000000000000000000000602082015250565b7f3c6d61736b2069643d276d61736b5f5f6265616d27206d61736b556e6974733d60008201527f277573657253706163654f6e5573652720783d27302720793d2730272077696460208201527f74683d27333627206865696768743d273336273e000000000000000000000000604082015250565b7f646174613a6170706c69636174696f6e2f6a736f6e3b6261736536342c000000600082015250565b7f4552433732313a207472616e736665722063616c6c6572206973206e6f74206f60008201527f776e6572206e6f7220617070726f766564000000000000000000000000000000602082015250565b7f3c726563742077696474683d27333627206865696768743d273336272072783d60008201527f273732272066696c6c3d277768697465273e3c2f726563743e00000000000000602082015250565b7f3c67207472616e73666f726d3d277472616e736c617465280000000000000000600082015250565b7f3c7265637420783d27302720793d2730272077696474683d273336272068656960008201527f6768743d27333627207472616e73666f726d3d277472616e736c617465280000602082015250565b7f455243373231456e756d657261626c653a20676c6f62616c20696e646578206f60008201527f7574206f6620626f756e64730000000000000000000000000000000000000000602082015250565b7f4d31332c00000000000000000000000000000000000000000000000000000000600082015250565b7f20322920726f7461746528000000000000000000000000000000000000000000600082015250565b7f2720793d273134272077696474683d27312e3527206865696768743d2732272060008201527f72783d273127207374726f6b653d276e6f6e65272066696c6c3d27626c61636b60208201527f273e3c2f726563743e0000000000000000000000000000000000000000000000604082015250565b7f3c2f7376673e0000000000000000000000000000000000000000000000000000600082015250565b7f3c2f6d61736b3e00000000000000000000000000000000000000000000000000600082015250565b7f646174613a696d6167652f7376672b786d6c3b6261736536342c000000000000600082015250565b615c8c81614c28565b8114615c9757600080fd5b50565b615ca381614c3a565b8114615cae57600080fd5b50565b615cba81614c7c565b8114615cc557600080fd5b50565b615cd181614cd2565b8114615cdc57600080fd5b5056fe4142434445464748494a4b4c4d4e4f505152535455565758595a6162636465666768696a6b6c6d6e6f707172737475767778797a303132333435363738392b2fa2646970667358221220d0548557050f97e8572820cadcb0b6ed191a75d5a9464fb665dbb2445457a70f64736f6c63430008040033",
  "linkReferences": {},
  "deployedLinkReferences": {}
}